{
	"compilerInput": "{\"language\":\"Solidity\",\"settings\":{\"optimizer\":{\"enabled\":true,\"runs\":200},\"outputSelection\":{\"*\":{\"\":[\"ast\"],\"*\":[\"abi\",\"metadata\",\"devdoc\",\"userdoc\",\"storageLayout\",\"evm.legacyAssembly\",\"evm.bytecode\",\"evm.deployedBytecode\",\"evm.methodIdentifiers\",\"evm.gasEstimates\",\"evm.assembly\"]}},\"remappings\":[]},\"sources\":{\"contract2.sol\":{\"content\":\"pragma solidity ^0.5.10;\\r\\n\\r\\ncontract DepositAndWithdraw {\\r\\n    address payable public accountWithDeposit;\\r\\n    uint public contractBalance; // New state variable to store the contract's balance\\r\\n\\r\\n    constructor() public {\\r\\n        accountWithDeposit = msg.sender; // Set the deployer's address as the default account with deposit\\r\\n        contractBalance = 0;\\r\\n    }\\r\\n\\r\\n    function deposit() public payable {\\r\\n        require(msg.sender == accountWithDeposit, \\\"Only the account with deposit can make deposits\\\");\\r\\n        require(msg.value > 0, \\\"Deposit amount must be greater than 0\\\");\\r\\n\\r\\n        contractBalance += msg.value; // Update contract balance\\r\\n    }\\r\\n\\r\\n    function withdraw() public {\\r\\n        require(msg.sender == accountWithDeposit, \\\"Only the account with deposit can withdraw\\\");\\r\\n        require(contractBalance > 0, \\\"No deposit available to withdraw\\\");\\r\\n\\r\\n        uint amountToWithdraw = contractBalance;\\r\\n        contractBalance = 0; // Reset the contract balance after withdrawal\\r\\n        accountWithDeposit.transfer(amountToWithdraw);\\r\\n    }\\r\\n\\r\\n    // Getter function to retrieve the contract's balance\\r\\n    function getContractBalance() public view returns (uint) {\\r\\n        return contractBalance;\\r\\n    }\\r\\n}\\r\\n\"}}}",
	"name": "DepositAndWithdraw",
	"bytecode": {
		"linkReferences": {},
		"object": "608060405234801561001057600080fd5b50600080546001600160a01b03191633178155600155610323806100356000396000f3fe60806040526004361061004a5760003560e01c80633ccfd60b1461004f5780636f9fb98a146100665780638b7afe2e1461008d578063d0e30db0146100a2578063feae65a8146100aa575b600080fd5b34801561005b57600080fd5b506100646100db565b005b34801561007257600080fd5b5061007b6101c3565b60408051918252519081900360200190f35b34801561009957600080fd5b5061007b6101c9565b6100646101cf565b3480156100b657600080fd5b506100bf610261565b604080516001600160a01b039092168252519081900360200190f35b6000546001600160a01b031633146101245760405162461bcd60e51b815260040180806020018281038252602a8152602001806102c5602a913960400191505060405180910390fd5b60006001541161017b576040805162461bcd60e51b815260206004820181905260248201527f4e6f206465706f73697420617661696c61626c6520746f207769746864726177604482015290519081900360640190fd5b60018054600091829055815460405191926001600160a01b039091169183156108fc0291849190818181858888f193505050501580156101bf573d6000803e3d6000fd5b5050565b60015490565b60015481565b6000546001600160a01b031633146102185760405162461bcd60e51b815260040180806020018281038252602f815260200180610296602f913960400191505060405180910390fd5b600034116102575760405162461bcd60e51b81526004018080602001828103825260258152602001806102716025913960400191505060405180910390fd5b6001805434019055565b6000546001600160a01b03168156fe4465706f73697420616d6f756e74206d7573742062652067726561746572207468616e20304f6e6c7920746865206163636f756e742077697468206465706f7369742063616e206d616b65206465706f736974734f6e6c7920746865206163636f756e742077697468206465706f7369742063616e207769746864726177a265627a7a72305820f4b7b4b40936931567e55a6073e864b039ec05868d708f5d16308aa49324628264736f6c634300050a0032",
		"opcodes": "PUSH1 0x80 PUSH1 0x40 MSTORE CALLVALUE DUP1 ISZERO PUSH2 0x10 JUMPI PUSH1 0x0 DUP1 REVERT JUMPDEST POP PUSH1 0x0 DUP1 SLOAD PUSH1 0x1 PUSH1 0x1 PUSH1 0xA0 SHL SUB NOT AND CALLER OR DUP2 SSTORE PUSH1 0x1 SSTORE PUSH2 0x323 DUP1 PUSH2 0x35 PUSH1 0x0 CODECOPY PUSH1 0x0 RETURN INVALID PUSH1 0x80 PUSH1 0x40 MSTORE PUSH1 0x4 CALLDATASIZE LT PUSH2 0x4A JUMPI PUSH1 0x0 CALLDATALOAD PUSH1 0xE0 SHR DUP1 PUSH4 0x3CCFD60B EQ PUSH2 0x4F JUMPI DUP1 PUSH4 0x6F9FB98A EQ PUSH2 0x66 JUMPI DUP1 PUSH4 0x8B7AFE2E EQ PUSH2 0x8D JUMPI DUP1 PUSH4 0xD0E30DB0 EQ PUSH2 0xA2 JUMPI DUP1 PUSH4 0xFEAE65A8 EQ PUSH2 0xAA JUMPI JUMPDEST PUSH1 0x0 DUP1 REVERT JUMPDEST CALLVALUE DUP1 ISZERO PUSH2 0x5B JUMPI PUSH1 0x0 DUP1 REVERT JUMPDEST POP PUSH2 0x64 PUSH2 0xDB JUMP JUMPDEST STOP JUMPDEST CALLVALUE DUP1 ISZERO PUSH2 0x72 JUMPI PUSH1 0x0 DUP1 REVERT JUMPDEST POP PUSH2 0x7B PUSH2 0x1C3 JUMP JUMPDEST PUSH1 0x40 DUP1 MLOAD SWAP2 DUP3 MSTORE MLOAD SWAP1 DUP2 SWAP1 SUB PUSH1 0x20 ADD SWAP1 RETURN JUMPDEST CALLVALUE DUP1 ISZERO PUSH2 0x99 JUMPI PUSH1 0x0 DUP1 REVERT JUMPDEST POP PUSH2 0x7B PUSH2 0x1C9 JUMP JUMPDEST PUSH2 0x64 PUSH2 0x1CF JUMP JUMPDEST CALLVALUE DUP1 ISZERO PUSH2 0xB6 JUMPI PUSH1 0x0 DUP1 REVERT JUMPDEST POP PUSH2 0xBF PUSH2 0x261 JUMP JUMPDEST PUSH1 0x40 DUP1 MLOAD PUSH1 0x1 PUSH1 0x1 PUSH1 0xA0 SHL SUB SWAP1 SWAP3 AND DUP3 MSTORE MLOAD SWAP1 DUP2 SWAP1 SUB PUSH1 0x20 ADD SWAP1 RETURN JUMPDEST PUSH1 0x0 SLOAD PUSH1 0x1 PUSH1 0x1 PUSH1 0xA0 SHL SUB AND CALLER EQ PUSH2 0x124 JUMPI PUSH1 0x40 MLOAD PUSH3 0x461BCD PUSH1 0xE5 SHL DUP2 MSTORE PUSH1 0x4 ADD DUP1 DUP1 PUSH1 0x20 ADD DUP3 DUP2 SUB DUP3 MSTORE PUSH1 0x2A DUP2 MSTORE PUSH1 0x20 ADD DUP1 PUSH2 0x2C5 PUSH1 0x2A SWAP2 CODECOPY PUSH1 0x40 ADD SWAP2 POP POP PUSH1 0x40 MLOAD DUP1 SWAP2 SUB SWAP1 REVERT JUMPDEST PUSH1 0x0 PUSH1 0x1 SLOAD GT PUSH2 0x17B JUMPI PUSH1 0x40 DUP1 MLOAD PUSH3 0x461BCD PUSH1 0xE5 SHL DUP2 MSTORE PUSH1 0x20 PUSH1 0x4 DUP3 ADD DUP2 SWAP1 MSTORE PUSH1 0x24 DUP3 ADD MSTORE PUSH32 0x4E6F206465706F73697420617661696C61626C6520746F207769746864726177 PUSH1 0x44 DUP3 ADD MSTORE SWAP1 MLOAD SWAP1 DUP2 SWAP1 SUB PUSH1 0x64 ADD SWAP1 REVERT JUMPDEST PUSH1 0x1 DUP1 SLOAD PUSH1 0x0 SWAP2 DUP3 SWAP1 SSTORE DUP2 SLOAD PUSH1 0x40 MLOAD SWAP2 SWAP3 PUSH1 0x1 PUSH1 0x1 PUSH1 0xA0 SHL SUB SWAP1 SWAP2 AND SWAP2 DUP4 ISZERO PUSH2 0x8FC MUL SWAP2 DUP5 SWAP2 SWAP1 DUP2 DUP2 DUP2 DUP6 DUP9 DUP9 CALL SWAP4 POP POP POP POP ISZERO DUP1 ISZERO PUSH2 0x1BF JUMPI RETURNDATASIZE PUSH1 0x0 DUP1 RETURNDATACOPY RETURNDATASIZE PUSH1 0x0 REVERT JUMPDEST POP POP JUMP JUMPDEST PUSH1 0x1 SLOAD SWAP1 JUMP JUMPDEST PUSH1 0x1 SLOAD DUP2 JUMP JUMPDEST PUSH1 0x0 SLOAD PUSH1 0x1 PUSH1 0x1 PUSH1 0xA0 SHL SUB AND CALLER EQ PUSH2 0x218 JUMPI PUSH1 0x40 MLOAD PUSH3 0x461BCD PUSH1 0xE5 SHL DUP2 MSTORE PUSH1 0x4 ADD DUP1 DUP1 PUSH1 0x20 ADD DUP3 DUP2 SUB DUP3 MSTORE PUSH1 0x2F DUP2 MSTORE PUSH1 0x20 ADD DUP1 PUSH2 0x296 PUSH1 0x2F SWAP2 CODECOPY PUSH1 0x40 ADD SWAP2 POP POP PUSH1 0x40 MLOAD DUP1 SWAP2 SUB SWAP1 REVERT JUMPDEST PUSH1 0x0 CALLVALUE GT PUSH2 0x257 JUMPI PUSH1 0x40 MLOAD PUSH3 0x461BCD PUSH1 0xE5 SHL DUP2 MSTORE PUSH1 0x4 ADD DUP1 DUP1 PUSH1 0x20 ADD DUP3 DUP2 SUB DUP3 MSTORE PUSH1 0x25 DUP2 MSTORE PUSH1 0x20 ADD DUP1 PUSH2 0x271 PUSH1 0x25 SWAP2 CODECOPY PUSH1 0x40 ADD SWAP2 POP POP PUSH1 0x40 MLOAD DUP1 SWAP2 SUB SWAP1 REVERT JUMPDEST PUSH1 0x1 DUP1 SLOAD CALLVALUE ADD SWAP1 SSTORE JUMP JUMPDEST PUSH1 0x0 SLOAD PUSH1 0x1 PUSH1 0x1 PUSH1 0xA0 SHL SUB AND DUP2 JUMP INVALID DIFFICULTY PUSH6 0x706F73697420 PUSH2 0x6D6F PUSH22 0x6E74206D757374206265206772656174657220746861 PUSH15 0x20304F6E6C7920746865206163636F PUSH22 0x6E742077697468206465706F7369742063616E206D61 PUSH12 0x65206465706F736974734F6E PUSH13 0x7920746865206163636F756E74 KECCAK256 PUSH24 0x697468206465706F7369742063616E207769746864726177 LOG2 PUSH6 0x627A7A723058 KECCAK256 DELEGATECALL 0xb7 0xb4 0xb4 MULMOD CALLDATASIZE SWAP4 ISZERO PUSH8 0xE55A6073E864B039 0xec SDIV DUP7 DUP14 PUSH17 0x8F5D16308AA49324628264736F6C634300 SDIV EXP STOP ORIGIN "
	},
	"abi": [
		{
			"constant": false,
			"inputs": [],
			"name": "withdraw",
			"outputs": [],
			"payable": false,
			"stateMutability": "nonpayable",
			"type": "function"
		},
		{
			"constant": true,
			"inputs": [],
			"name": "getContractBalance",
			"outputs": [
				{
					"name": "",
					"type": "uint256"
				}
			],
			"payable": false,
			"stateMutability": "view",
			"type": "function"
		},
		{
			"constant": true,
			"inputs": [],
			"name": "contractBalance",
			"outputs": [
				{
					"name": "",
					"type": "uint256"
				}
			],
			"payable": false,
			"stateMutability": "view",
			"type": "function"
		},
		{
			"constant": false,
			"inputs": [],
			"name": "deposit",
			"outputs": [],
			"payable": true,
			"stateMutability": "payable",
			"type": "function"
		},
		{
			"constant": true,
			"inputs": [],
			"name": "accountWithDeposit",
			"outputs": [
				{
					"name": "",
					"type": "address"
				}
			],
			"payable": false,
			"stateMutability": "view",
			"type": "function"
		},
		{
			"inputs": [],
			"payable": false,
			"stateMutability": "nonpayable",
			"type": "constructor"
		}
	],
	"web3Deploy": "var depositandwithdrawContract = new web3.eth.Contract([{\"constant\":false,\"inputs\":[],\"name\":\"withdraw\",\"outputs\":[],\"payable\":false,\"stateMutability\":\"nonpayable\",\"type\":\"function\"},{\"constant\":true,\"inputs\":[],\"name\":\"getContractBalance\",\"outputs\":[{\"name\":\"\",\"type\":\"uint256\"}],\"payable\":false,\"stateMutability\":\"view\",\"type\":\"function\"},{\"constant\":true,\"inputs\":[],\"name\":\"contractBalance\",\"outputs\":[{\"name\":\"\",\"type\":\"uint256\"}],\"payable\":false,\"stateMutability\":\"view\",\"type\":\"function\"},{\"constant\":false,\"inputs\":[],\"name\":\"deposit\",\"outputs\":[],\"payable\":true,\"stateMutability\":\"payable\",\"type\":\"function\"},{\"constant\":true,\"inputs\":[],\"name\":\"accountWithDeposit\",\"outputs\":[{\"name\":\"\",\"type\":\"address\"}],\"payable\":false,\"stateMutability\":\"view\",\"type\":\"function\"},{\"inputs\":[],\"payable\":false,\"stateMutability\":\"nonpayable\",\"type\":\"constructor\"}]);\nvar depositandwithdraw = depositandwithdrawContract.deploy({\n     data: '0x608060405234801561001057600080fd5b50600080546001600160a01b03191633178155600155610323806100356000396000f3fe60806040526004361061004a5760003560e01c80633ccfd60b1461004f5780636f9fb98a146100665780638b7afe2e1461008d578063d0e30db0146100a2578063feae65a8146100aa575b600080fd5b34801561005b57600080fd5b506100646100db565b005b34801561007257600080fd5b5061007b6101c3565b60408051918252519081900360200190f35b34801561009957600080fd5b5061007b6101c9565b6100646101cf565b3480156100b657600080fd5b506100bf610261565b604080516001600160a01b039092168252519081900360200190f35b6000546001600160a01b031633146101245760405162461bcd60e51b815260040180806020018281038252602a8152602001806102c5602a913960400191505060405180910390fd5b60006001541161017b576040805162461bcd60e51b815260206004820181905260248201527f4e6f206465706f73697420617661696c61626c6520746f207769746864726177604482015290519081900360640190fd5b60018054600091829055815460405191926001600160a01b039091169183156108fc0291849190818181858888f193505050501580156101bf573d6000803e3d6000fd5b5050565b60015490565b60015481565b6000546001600160a01b031633146102185760405162461bcd60e51b815260040180806020018281038252602f815260200180610296602f913960400191505060405180910390fd5b600034116102575760405162461bcd60e51b81526004018080602001828103825260258152602001806102716025913960400191505060405180910390fd5b6001805434019055565b6000546001600160a01b03168156fe4465706f73697420616d6f756e74206d7573742062652067726561746572207468616e20304f6e6c7920746865206163636f756e742077697468206465706f7369742063616e206d616b65206465706f736974734f6e6c7920746865206163636f756e742077697468206465706f7369742063616e207769746864726177a265627a7a72305820f4b7b4b40936931567e55a6073e864b039ec05868d708f5d16308aa49324628264736f6c634300050a0032', \n     arguments: [\n     ]\n}).send({\n     from: web3.eth.accounts[0], \n     gas: '4700000'\n   }, function (e, contract){\n    console.log(e, contract);\n    if (typeof contract.address !== 'undefined') {\n         console.log('Contract mined! address: ' + contract.address + ' transactionHash: ' + contract.transactionHash);\n    }\n })",
	"functionHashes": {
		"feae65a8": "accountWithDeposit()",
		"8b7afe2e": "contractBalance()",
		"d0e30db0": "deposit()",
		"6f9fb98a": "getContractBalance()",
		"3ccfd60b": "withdraw()"
	},
	"gasEstimates": {
		"Creation": {
			"codeDepositCost": "160600",
			"executionCost": "25446",
			"totalCost": "186046"
		},
		"External": {
			"accountWithDeposit()": "503",
			"contractBalance()": "420",
			"deposit()": "infinite",
			"getContractBalance()": "398",
			"withdraw()": "infinite"
		}
	},
	"devdoc": {
		"methods": {}
	},
	"userdoc": {
		"methods": {}
	},
	"Runtime Bytecode": {
		"linkReferences": {},
		"object": "60806040526004361061004a5760003560e01c80633ccfd60b1461004f5780636f9fb98a146100665780638b7afe2e1461008d578063d0e30db0146100a2578063feae65a8146100aa575b600080fd5b34801561005b57600080fd5b506100646100db565b005b34801561007257600080fd5b5061007b6101c3565b60408051918252519081900360200190f35b34801561009957600080fd5b5061007b6101c9565b6100646101cf565b3480156100b657600080fd5b506100bf610261565b604080516001600160a01b039092168252519081900360200190f35b6000546001600160a01b031633146101245760405162461bcd60e51b815260040180806020018281038252602a8152602001806102c5602a913960400191505060405180910390fd5b60006001541161017b576040805162461bcd60e51b815260206004820181905260248201527f4e6f206465706f73697420617661696c61626c6520746f207769746864726177604482015290519081900360640190fd5b60018054600091829055815460405191926001600160a01b039091169183156108fc0291849190818181858888f193505050501580156101bf573d6000803e3d6000fd5b5050565b60015490565b60015481565b6000546001600160a01b031633146102185760405162461bcd60e51b815260040180806020018281038252602f815260200180610296602f913960400191505060405180910390fd5b600034116102575760405162461bcd60e51b81526004018080602001828103825260258152602001806102716025913960400191505060405180910390fd5b6001805434019055565b6000546001600160a01b03168156fe4465706f73697420616d6f756e74206d7573742062652067726561746572207468616e20304f6e6c7920746865206163636f756e742077697468206465706f7369742063616e206d616b65206465706f736974734f6e6c7920746865206163636f756e742077697468206465706f7369742063616e207769746864726177a265627a7a72305820f4b7b4b40936931567e55a6073e864b039ec05868d708f5d16308aa49324628264736f6c634300050a0032",
		"opcodes": "PUSH1 0x80 PUSH1 0x40 MSTORE PUSH1 0x4 CALLDATASIZE LT PUSH2 0x4A JUMPI PUSH1 0x0 CALLDATALOAD PUSH1 0xE0 SHR DUP1 PUSH4 0x3CCFD60B EQ PUSH2 0x4F JUMPI DUP1 PUSH4 0x6F9FB98A EQ PUSH2 0x66 JUMPI DUP1 PUSH4 0x8B7AFE2E EQ PUSH2 0x8D JUMPI DUP1 PUSH4 0xD0E30DB0 EQ PUSH2 0xA2 JUMPI DUP1 PUSH4 0xFEAE65A8 EQ PUSH2 0xAA JUMPI JUMPDEST PUSH1 0x0 DUP1 REVERT JUMPDEST CALLVALUE DUP1 ISZERO PUSH2 0x5B JUMPI PUSH1 0x0 DUP1 REVERT JUMPDEST POP PUSH2 0x64 PUSH2 0xDB JUMP JUMPDEST STOP JUMPDEST CALLVALUE DUP1 ISZERO PUSH2 0x72 JUMPI PUSH1 0x0 DUP1 REVERT JUMPDEST POP PUSH2 0x7B PUSH2 0x1C3 JUMP JUMPDEST PUSH1 0x40 DUP1 MLOAD SWAP2 DUP3 MSTORE MLOAD SWAP1 DUP2 SWAP1 SUB PUSH1 0x20 ADD SWAP1 RETURN JUMPDEST CALLVALUE DUP1 ISZERO PUSH2 0x99 JUMPI PUSH1 0x0 DUP1 REVERT JUMPDEST POP PUSH2 0x7B PUSH2 0x1C9 JUMP JUMPDEST PUSH2 0x64 PUSH2 0x1CF JUMP JUMPDEST CALLVALUE DUP1 ISZERO PUSH2 0xB6 JUMPI PUSH1 0x0 DUP1 REVERT JUMPDEST POP PUSH2 0xBF PUSH2 0x261 JUMP JUMPDEST PUSH1 0x40 DUP1 MLOAD PUSH1 0x1 PUSH1 0x1 PUSH1 0xA0 SHL SUB SWAP1 SWAP3 AND DUP3 MSTORE MLOAD SWAP1 DUP2 SWAP1 SUB PUSH1 0x20 ADD SWAP1 RETURN JUMPDEST PUSH1 0x0 SLOAD PUSH1 0x1 PUSH1 0x1 PUSH1 0xA0 SHL SUB AND CALLER EQ PUSH2 0x124 JUMPI PUSH1 0x40 MLOAD PUSH3 0x461BCD PUSH1 0xE5 SHL DUP2 MSTORE PUSH1 0x4 ADD DUP1 DUP1 PUSH1 0x20 ADD DUP3 DUP2 SUB DUP3 MSTORE PUSH1 0x2A DUP2 MSTORE PUSH1 0x20 ADD DUP1 PUSH2 0x2C5 PUSH1 0x2A SWAP2 CODECOPY PUSH1 0x40 ADD SWAP2 POP POP PUSH1 0x40 MLOAD DUP1 SWAP2 SUB SWAP1 REVERT JUMPDEST PUSH1 0x0 PUSH1 0x1 SLOAD GT PUSH2 0x17B JUMPI PUSH1 0x40 DUP1 MLOAD PUSH3 0x461BCD PUSH1 0xE5 SHL DUP2 MSTORE PUSH1 0x20 PUSH1 0x4 DUP3 ADD DUP2 SWAP1 MSTORE PUSH1 0x24 DUP3 ADD MSTORE PUSH32 0x4E6F206465706F73697420617661696C61626C6520746F207769746864726177 PUSH1 0x44 DUP3 ADD MSTORE SWAP1 MLOAD SWAP1 DUP2 SWAP1 SUB PUSH1 0x64 ADD SWAP1 REVERT JUMPDEST PUSH1 0x1 DUP1 SLOAD PUSH1 0x0 SWAP2 DUP3 SWAP1 SSTORE DUP2 SLOAD PUSH1 0x40 MLOAD SWAP2 SWAP3 PUSH1 0x1 PUSH1 0x1 PUSH1 0xA0 SHL SUB SWAP1 SWAP2 AND SWAP2 DUP4 ISZERO PUSH2 0x8FC MUL SWAP2 DUP5 SWAP2 SWAP1 DUP2 DUP2 DUP2 DUP6 DUP9 DUP9 CALL SWAP4 POP POP POP POP ISZERO DUP1 ISZERO PUSH2 0x1BF JUMPI RETURNDATASIZE PUSH1 0x0 DUP1 RETURNDATACOPY RETURNDATASIZE PUSH1 0x0 REVERT JUMPDEST POP POP JUMP JUMPDEST PUSH1 0x1 SLOAD SWAP1 JUMP JUMPDEST PUSH1 0x1 SLOAD DUP2 JUMP JUMPDEST PUSH1 0x0 SLOAD PUSH1 0x1 PUSH1 0x1 PUSH1 0xA0 SHL SUB AND CALLER EQ PUSH2 0x218 JUMPI PUSH1 0x40 MLOAD PUSH3 0x461BCD PUSH1 0xE5 SHL DUP2 MSTORE PUSH1 0x4 ADD DUP1 DUP1 PUSH1 0x20 ADD DUP3 DUP2 SUB DUP3 MSTORE PUSH1 0x2F DUP2 MSTORE PUSH1 0x20 ADD DUP1 PUSH2 0x296 PUSH1 0x2F SWAP2 CODECOPY PUSH1 0x40 ADD SWAP2 POP POP PUSH1 0x40 MLOAD DUP1 SWAP2 SUB SWAP1 REVERT JUMPDEST PUSH1 0x0 CALLVALUE GT PUSH2 0x257 JUMPI PUSH1 0x40 MLOAD PUSH3 0x461BCD PUSH1 0xE5 SHL DUP2 MSTORE PUSH1 0x4 ADD DUP1 DUP1 PUSH1 0x20 ADD DUP3 DUP2 SUB DUP3 MSTORE PUSH1 0x25 DUP2 MSTORE PUSH1 0x20 ADD DUP1 PUSH2 0x271 PUSH1 0x25 SWAP2 CODECOPY PUSH1 0x40 ADD SWAP2 POP POP PUSH1 0x40 MLOAD DUP1 SWAP2 SUB SWAP1 REVERT JUMPDEST PUSH1 0x1 DUP1 SLOAD CALLVALUE ADD SWAP1 SSTORE JUMP JUMPDEST PUSH1 0x0 SLOAD PUSH1 0x1 PUSH1 0x1 PUSH1 0xA0 SHL SUB AND DUP2 JUMP INVALID DIFFICULTY PUSH6 0x706F73697420 PUSH2 0x6D6F PUSH22 0x6E74206D757374206265206772656174657220746861 PUSH15 0x20304F6E6C7920746865206163636F PUSH22 0x6E742077697468206465706F7369742063616E206D61 PUSH12 0x65206465706F736974734F6E PUSH13 0x7920746865206163636F756E74 KECCAK256 PUSH24 0x697468206465706F7369742063616E207769746864726177 LOG2 PUSH6 0x627A7A723058 KECCAK256 DELEGATECALL 0xb7 0xb4 0xb4 MULMOD CALLDATASIZE SWAP4 ISZERO PUSH8 0xE55A6073E864B039 0xec SDIV DUP7 DUP14 PUSH17 0x8F5D16308AA49324628264736F6C634300 SDIV EXP STOP ORIGIN "
	},
	"Assembly": ".code\n  PUSH 80\t\t\tcontract DepositAndWithdraw {\\...\n  PUSH 40\t\t\tcontract DepositAndWithdraw {\\...\n  MSTORE \t\t\tcontract DepositAndWithdraw {\\...\n  CALLVALUE \t\t\tconstructor() public {\\r\\n    ...\n  DUP1 \t\t\tolidity ^\n  ISZERO \t\t\ta \n  PUSH [tag] 1\t\t\ta \n  JUMPI \t\t\ta \n  PUSH 0\t\t\tn\n  DUP1 \t\t\t\\n\n  REVERT \t\t\t.10;\\r\\n\\r\\ncont\ntag 1\t\t\ta \n  JUMPDEST \t\t\ta \n  POP \t\t\t\n  PUSH 0\t\t\taccountWithDeposit\n  DUP1 \t\t\taccountWithDeposit = msg.sende...\n  SLOAD \t\t\taccountWithDeposit = msg.sende...\n  PUSH 1\t\t\t\n  PUSH 1\t\t\t\n  PUSH A0\t\t\t\n  SHL \t\t\t\n  SUB \t\t\t\n  NOT \t\t\t\n  AND \t\t\taccountWithDeposit = msg.sende...\n  CALLER \t\t\tmsg.sender\n  OR \t\t\taccountWithDeposit = msg.sende...\n  DUP2 \t\t\taccountWithDeposit = msg.sende...\n  SSTORE \t\t\taccountWithDeposit = msg.sende...\n  PUSH 1\t\t\taccountWithDeposit = msg.sende...\n  SSTORE \t\t\tcontractBalance = 0\n  PUSH #[$] 0000000000000000000000000000000000000000000000000000000000000000\t\t\tcontract DepositAndWithdraw {\\...\n  DUP1 \t\t\tcontract DepositAndWithdraw {\\...\n  PUSH [$] 0000000000000000000000000000000000000000000000000000000000000000\t\t\tcontract DepositAndWithdraw {\\...\n  PUSH 0\t\t\tcontract DepositAndWithdraw {\\...\n  CODECOPY \t\t\tcontract DepositAndWithdraw {\\...\n  PUSH 0\t\t\tcontract DepositAndWithdraw {\\...\n  RETURN \t\t\tcontract DepositAndWithdraw {\\...\n.data\n  0:\n    .code\n      PUSH 80\t\t\tcontract DepositAndWithdraw {\\...\n      PUSH 40\t\t\tcontract DepositAndWithdraw {\\...\n      MSTORE \t\t\tcontract DepositAndWithdraw {\\...\n      PUSH 4\t\t\tcontract DepositAndWithdraw {\\...\n      CALLDATASIZE \t\t\tcontract DepositAndWithdraw {\\...\n      LT \t\t\tcontract DepositAndWithdraw {\\...\n      PUSH [tag] 1\t\t\tcontract DepositAndWithdraw {\\...\n      JUMPI \t\t\tcontract DepositAndWithdraw {\\...\n      PUSH 0\t\t\tcontract DepositAndWithdraw {\\...\n      CALLDATALOAD \t\t\tcontract DepositAndWithdraw {\\...\n      PUSH E0\t\t\tcontract DepositAndWithdraw {\\...\n      SHR \t\t\tcontract DepositAndWithdraw {\\...\n      DUP1 \t\t\tcontract DepositAndWithdraw {\\...\n      PUSH 3CCFD60B\t\t\tcontract DepositAndWithdraw {\\...\n      EQ \t\t\tcontract DepositAndWithdraw {\\...\n      PUSH [tag] 2\t\t\tcontract DepositAndWithdraw {\\...\n      JUMPI \t\t\tcontract DepositAndWithdraw {\\...\n      DUP1 \t\t\tcontract DepositAndWithdraw {\\...\n      PUSH 6F9FB98A\t\t\tcontract DepositAndWithdraw {\\...\n      EQ \t\t\tcontract DepositAndWithdraw {\\...\n      PUSH [tag] 3\t\t\tcontract DepositAndWithdraw {\\...\n      JUMPI \t\t\tcontract DepositAndWithdraw {\\...\n      DUP1 \t\t\tcontract DepositAndWithdraw {\\...\n      PUSH 8B7AFE2E\t\t\tcontract DepositAndWithdraw {\\...\n      EQ \t\t\tcontract DepositAndWithdraw {\\...\n      PUSH [tag] 4\t\t\tcontract DepositAndWithdraw {\\...\n      JUMPI \t\t\tcontract DepositAndWithdraw {\\...\n      DUP1 \t\t\tcontract DepositAndWithdraw {\\...\n      PUSH D0E30DB0\t\t\tcontract DepositAndWithdraw {\\...\n      EQ \t\t\tcontract DepositAndWithdraw {\\...\n      PUSH [tag] 5\t\t\tcontract DepositAndWithdraw {\\...\n      JUMPI \t\t\tcontract DepositAndWithdraw {\\...\n      DUP1 \t\t\tcontract DepositAndWithdraw {\\...\n      PUSH FEAE65A8\t\t\tcontract DepositAndWithdraw {\\...\n      EQ \t\t\tcontract DepositAndWithdraw {\\...\n      PUSH [tag] 6\t\t\tcontract DepositAndWithdraw {\\...\n      JUMPI \t\t\tcontract DepositAndWithdraw {\\...\n    tag 1\t\t\tcontract DepositAndWithdraw {\\...\n      JUMPDEST \t\t\tcontract DepositAndWithdraw {\\...\n      PUSH 0\t\t\tcontract DepositAndWithdraw {\\...\n      DUP1 \t\t\tcontract DepositAndWithdraw {\\...\n      REVERT \t\t\tcontract DepositAndWithdraw {\\...\n    tag 2\t\t\tfunction withdraw() public {\\r...\n      JUMPDEST \t\t\tfunction withdraw() public {\\r...\n      CALLVALUE \t\t\tfunction withdraw() public {\\r...\n      DUP1 \t\t\tolidity ^\n      ISZERO \t\t\ta \n      PUSH [tag] 7\t\t\ta \n      JUMPI \t\t\ta \n      PUSH 0\t\t\tn\n      DUP1 \t\t\t\\n\n      REVERT \t\t\t.10;\\r\\n\\r\\ncont\n    tag 7\t\t\ta \n      JUMPDEST \t\t\ta \n      POP \t\t\tfunction withdraw() public {\\r...\n      PUSH [tag] 8\t\t\tfunction withdraw() public {\\r...\n      PUSH [tag] 9\t\t\tfunction withdraw() public {\\r...\n      JUMP [in]\t\t\tfunction withdraw() public {\\r...\n    tag 8\t\t\tfunction withdraw() public {\\r...\n      JUMPDEST \t\t\tfunction withdraw() public {\\r...\n      STOP \t\t\tfunction withdraw() public {\\r...\n    tag 3\t\t\tfunction getContractBalance() ...\n      JUMPDEST \t\t\tfunction getContractBalance() ...\n      CALLVALUE \t\t\tfunction getContractBalance() ...\n      DUP1 \t\t\tolidity ^\n      ISZERO \t\t\ta \n      PUSH [tag] 10\t\t\ta \n      JUMPI \t\t\ta \n      PUSH 0\t\t\tn\n      DUP1 \t\t\t\\n\n      REVERT \t\t\t.10;\\r\\n\\r\\ncont\n    tag 10\t\t\ta \n      JUMPDEST \t\t\ta \n      POP \t\t\tfunction getContractBalance() ...\n      PUSH [tag] 11\t\t\tfunction getContractBalance() ...\n      PUSH [tag] 12\t\t\tfunction getContractBalance() ...\n      JUMP [in]\t\t\tfunction getContractBalance() ...\n    tag 11\t\t\tfunction getContractBalance() ...\n      JUMPDEST \t\t\tfunction getContractBalance() ...\n      PUSH 40\t\t\tfunction getContractBalance() ...\n      DUP1 \t\t\tfunction getContractBalance() ...\n      MLOAD \t\t\tfunction getContractBalance() ...\n      SWAP2 \t\t\tfunction getContractBalance() ...\n      DUP3 \t\t\tfunction getContractBalance() ...\n      MSTORE \t\t\tfunction getContractBalance() ...\n      MLOAD \t\t\tfunction getContractBalance() ...\n      SWAP1 \t\t\tfunction getContractBalance() ...\n      DUP2 \t\t\tfunction getContractBalance() ...\n      SWAP1 \t\t\tfunction getContractBalance() ...\n      SUB \t\t\tfunction getContractBalance() ...\n      PUSH 20\t\t\tfunction getContractBalance() ...\n      ADD \t\t\tfunction getContractBalance() ...\n      SWAP1 \t\t\tfunction getContractBalance() ...\n      RETURN \t\t\tfunction getContractBalance() ...\n    tag 4\t\t\tuint public contractBalance\n      JUMPDEST \t\t\tuint public contractBalance\n      CALLVALUE \t\t\tuint public contractBalance\n      DUP1 \t\t\tolidity ^\n      ISZERO \t\t\ta \n      PUSH [tag] 13\t\t\ta \n      JUMPI \t\t\ta \n      PUSH 0\t\t\tn\n      DUP1 \t\t\t\\n\n      REVERT \t\t\t.10;\\r\\n\\r\\ncont\n    tag 13\t\t\ta \n      JUMPDEST \t\t\ta \n      POP \t\t\tuint public contractBalance\n      PUSH [tag] 11\t\t\tuint public contractBalance\n      PUSH [tag] 15\t\t\tuint public contractBalance\n      JUMP [in]\t\t\tuint public contractBalance\n    tag 5\t\t\tfunction deposit() public paya...\n      JUMPDEST \t\t\tfunction deposit() public paya...\n      PUSH [tag] 8\t\t\tfunction deposit() public paya...\n      PUSH [tag] 17\t\t\tfunction deposit() public paya...\n      JUMP [in]\t\t\tfunction deposit() public paya...\n    tag 6\t\t\taddress payable public account...\n      JUMPDEST \t\t\taddress payable public account...\n      CALLVALUE \t\t\taddress payable public account...\n      DUP1 \t\t\tolidity ^\n      ISZERO \t\t\ta \n      PUSH [tag] 18\t\t\ta \n      JUMPI \t\t\ta \n      PUSH 0\t\t\tn\n      DUP1 \t\t\t\\n\n      REVERT \t\t\t.10;\\r\\n\\r\\ncont\n    tag 18\t\t\ta \n      JUMPDEST \t\t\ta \n      POP \t\t\taddress payable public account...\n      PUSH [tag] 19\t\t\taddress payable public account...\n      PUSH [tag] 20\t\t\taddress payable public account...\n      JUMP [in]\t\t\taddress payable public account...\n    tag 19\t\t\taddress payable public account...\n      JUMPDEST \t\t\taddress payable public account...\n      PUSH 40\t\t\taddress payable public account...\n      DUP1 \t\t\taddress payable public account...\n      MLOAD \t\t\taddress payable public account...\n      PUSH 1\t\t\t\n      PUSH 1\t\t\t\n      PUSH A0\t\t\t\n      SHL \t\t\t\n      SUB \t\t\t\n      SWAP1 \t\t\taddress payable public account...\n      SWAP3 \t\t\taddress payable public account...\n      AND \t\t\taddress payable public account...\n      DUP3 \t\t\taddress payable public account...\n      MSTORE \t\t\taddress payable public account...\n      MLOAD \t\t\taddress payable public account...\n      SWAP1 \t\t\taddress payable public account...\n      DUP2 \t\t\taddress payable public account...\n      SWAP1 \t\t\taddress payable public account...\n      SUB \t\t\taddress payable public account...\n      PUSH 20\t\t\taddress payable public account...\n      ADD \t\t\taddress payable public account...\n      SWAP1 \t\t\taddress payable public account...\n      RETURN \t\t\taddress payable public account...\n    tag 9\t\t\tfunction withdraw() public {\\r...\n      JUMPDEST \t\t\tfunction withdraw() public {\\r...\n      PUSH 0\t\t\taccountWithDeposit\n      SLOAD \t\t\taccountWithDeposit\n      PUSH 1\t\t\t\n      PUSH 1\t\t\t\n      PUSH A0\t\t\t\n      SHL \t\t\t\n      SUB \t\t\t\n      AND \t\t\taccountWithDeposit\n      CALLER \t\t\tmsg.sender\n      EQ \t\t\tmsg.sender == accountWithDepos...\n      PUSH [tag] 22\t\t\trequire(msg.sender == accountW...\n      JUMPI \t\t\trequire(msg.sender == accountW...\n      PUSH 40\t\t\trequire(msg.sender == accountW...\n      MLOAD \t\t\trequire(msg.sender == accountW...\n      PUSH 461BCD\t\t\t\n      PUSH E5\t\t\t\n      SHL \t\t\t\n      DUP2 \t\t\trequire(msg.sender == accountW...\n      MSTORE \t\t\trequire(msg.sender == accountW...\n      PUSH 4\t\t\trequire(msg.sender == accountW...\n      ADD \t\t\trequire(msg.sender == accountW...\n      DUP1 \t\t\trequire(msg.sender == accountW...\n      DUP1 \t\t\trequire(msg.sender == accountW...\n      PUSH 20\t\t\trequire(msg.sender == accountW...\n      ADD \t\t\trequire(msg.sender == accountW...\n      DUP3 \t\t\trequire(msg.sender == accountW...\n      DUP2 \t\t\trequire(msg.sender == accountW...\n      SUB \t\t\trequire(msg.sender == accountW...\n      DUP3 \t\t\trequire(msg.sender == accountW...\n      MSTORE \t\t\trequire(msg.sender == accountW...\n      PUSH 2A\t\t\trequire(msg.sender == accountW...\n      DUP2 \t\t\trequire(msg.sender == accountW...\n      MSTORE \t\t\trequire(msg.sender == accountW...\n      PUSH 20\t\t\trequire(msg.sender == accountW...\n      ADD \t\t\trequire(msg.sender == accountW...\n      DUP1 \t\t\trequire(msg.sender == accountW...\n      PUSH data DDDD7DD40A87E1748F83F94D3F5C6A72E15A6E0971DBE06B64CAFC288D340D98\t\t\trequire(msg.sender == accountW...\n      PUSH 2A\t\t\trequire(msg.sender == accountW...\n      SWAP2 \t\t\trequire(msg.sender == accountW...\n      CODECOPY \t\t\trequire(msg.sender == accountW...\n      PUSH 40\t\t\trequire(msg.sender == accountW...\n      ADD \t\t\trequire(msg.sender == accountW...\n      SWAP2 \t\t\trequire(msg.sender == accountW...\n      POP \t\t\trequire(msg.sender == accountW...\n      POP \t\t\trequire(msg.sender == accountW...\n      PUSH 40\t\t\trequire(msg.sender == accountW...\n      MLOAD \t\t\trequire(msg.sender == accountW...\n      DUP1 \t\t\trequire(msg.sender == accountW...\n      SWAP2 \t\t\trequire(msg.sender == accountW...\n      SUB \t\t\trequire(msg.sender == accountW...\n      SWAP1 \t\t\trequire(msg.sender == accountW...\n      REVERT \t\t\trequire(msg.sender == accountW...\n    tag 22\t\t\trequire(msg.sender == accountW...\n      JUMPDEST \t\t\trequire(msg.sender == accountW...\n      PUSH 0\t\t\t0\n      PUSH 1\t\t\tcontractBalance\n      SLOAD \t\t\tcontractBalance\n      GT \t\t\tcontractBalance > 0\n      PUSH [tag] 23\t\t\trequire(contractBalance > 0, \"...\n      JUMPI \t\t\trequire(contractBalance > 0, \"...\n      PUSH 40\t\t\trequire(contractBalance > 0, \"...\n      DUP1 \t\t\trequire(contractBalance > 0, \"...\n      MLOAD \t\t\trequire(contractBalance > 0, \"...\n      PUSH 461BCD\t\t\t\n      PUSH E5\t\t\t\n      SHL \t\t\t\n      DUP2 \t\t\trequire(contractBalance > 0, \"...\n      MSTORE \t\t\trequire(contractBalance > 0, \"...\n      PUSH 20\t\t\trequire(contractBalance > 0, \"...\n      PUSH 4\t\t\trequire(contractBalance > 0, \"...\n      DUP3 \t\t\trequire(contractBalance > 0, \"...\n      ADD \t\t\trequire(contractBalance > 0, \"...\n      DUP2 \t\t\trequire(contractBalance > 0, \"...\n      SWAP1 \t\t\trequire(contractBalance > 0, \"...\n      MSTORE \t\t\trequire(contractBalance > 0, \"...\n      PUSH 24\t\t\trequire(contractBalance > 0, \"...\n      DUP3 \t\t\trequire(contractBalance > 0, \"...\n      ADD \t\t\trequire(contractBalance > 0, \"...\n      MSTORE \t\t\trequire(contractBalance > 0, \"...\n      PUSH 4E6F206465706F73697420617661696C61626C6520746F207769746864726177\t\t\trequire(contractBalance > 0, \"...\n      PUSH 44\t\t\trequire(contractBalance > 0, \"...\n      DUP3 \t\t\trequire(contractBalance > 0, \"...\n      ADD \t\t\trequire(contractBalance > 0, \"...\n      MSTORE \t\t\trequire(contractBalance > 0, \"...\n      SWAP1 \t\t\trequire(contractBalance > 0, \"...\n      MLOAD \t\t\trequire(contractBalance > 0, \"...\n      SWAP1 \t\t\trequire(contractBalance > 0, \"...\n      DUP2 \t\t\trequire(contractBalance > 0, \"...\n      SWAP1 \t\t\trequire(contractBalance > 0, \"...\n      SUB \t\t\trequire(contractBalance > 0, \"...\n      PUSH 64\t\t\trequire(contractBalance > 0, \"...\n      ADD \t\t\trequire(contractBalance > 0, \"...\n      SWAP1 \t\t\trequire(contractBalance > 0, \"...\n      REVERT \t\t\trequire(contractBalance > 0, \"...\n    tag 23\t\t\trequire(contractBalance > 0, \"...\n      JUMPDEST \t\t\trequire(contractBalance > 0, \"...\n      PUSH 1\t\t\tcontractBalance\n      DUP1 \t\t\tcontractBalance\n      SLOAD \t\t\tcontractBalance\n      PUSH 0\t\t\tuint amountToWithdraw\n      SWAP2 \t\t\tcontractBalance = 0\n      DUP3 \t\t\tcontractBalance = 0\n      SWAP1 \t\t\tcontractBalance = 0\n      SSTORE \t\t\tcontractBalance = 0\n      DUP2 \t\t\taccountWithDeposit\n      SLOAD \t\t\taccountWithDeposit\n      PUSH 40\t\t\taccountWithDeposit.transfer(am...\n      MLOAD \t\t\taccountWithDeposit.transfer(am...\n      SWAP2 \t\t\tcontractBalance\n      SWAP3 \t\t\tcontractBalance\n      PUSH 1\t\t\t\n      PUSH 1\t\t\t\n      PUSH A0\t\t\t\n      SHL \t\t\t\n      SUB \t\t\t\n      SWAP1 \t\t\taccountWithDeposit\n      SWAP2 \t\t\taccountWithDeposit\n      AND \t\t\taccountWithDeposit\n      SWAP2 \t\t\taccountWithDeposit\n      DUP4 \t\t\taccountWithDeposit.transfer(am...\n      ISZERO \t\t\taccountWithDeposit.transfer(am...\n      PUSH 8FC\t\t\taccountWithDeposit.transfer(am...\n      MUL \t\t\taccountWithDeposit.transfer(am...\n      SWAP2 \t\t\taccountWithDeposit.transfer(am...\n      DUP5 \t\t\tcontractBalance\n      SWAP2 \t\t\tcontractBalance\n      SWAP1 \t\t\taccountWithDeposit.transfer(am...\n      DUP2 \t\t\taccountWithDeposit.transfer(am...\n      DUP2 \t\t\tuint amountToWithdraw\n      DUP2 \t\t\taccountWithDeposit.transfer(am...\n      DUP6 \t\t\tcontractBalance\n      DUP9 \t\t\taccountWithDeposit\n      DUP9 \t\t\taccountWithDeposit.transfer(am...\n      CALL \t\t\taccountWithDeposit.transfer(am...\n      SWAP4 \t\t\taccountWithDeposit.transfer(am...\n      POP \t\t\taccountWithDeposit.transfer(am...\n      POP \t\t\taccountWithDeposit.transfer(am...\n      POP \t\t\taccountWithDeposit.transfer(am...\n      POP \t\t\taccountWithDeposit.transfer(am...\n      ISZERO \t\t\taccountWithDeposit.transfer(am...\n      DUP1 \t\t\tolidity ^\n      ISZERO \t\t\ta \n      PUSH [tag] 24\t\t\ta \n      JUMPI \t\t\ta \n      RETURNDATASIZE \t\t\tndWithdraw {\\r\\n  \n      PUSH 0\t\t\ti\n      DUP1 \t\t\tp\n      RETURNDATACOPY \t\t\t\\r\\n\\r\\ncontract DepositAndWit...\n      RETURNDATASIZE \t\t\te public account\n      PUSH 0\t\t\ta\n      REVERT \t\t\tess payable public accountW\n    tag 24\t\t\ta \n      JUMPDEST \t\t\ta \n      POP \t\t\taccountWithDeposit.transfer(am...\n      POP \t\t\tfunction withdraw() public {\\r...\n      JUMP [out]\t\t\tfunction withdraw() public {\\r...\n    tag 12\t\t\tfunction getContractBalance() ...\n      JUMPDEST \t\t\tfunction getContractBalance() ...\n      PUSH 1\t\t\tcontractBalance\n      SLOAD \t\t\tcontractBalance\n      SWAP1 \t\t\tfunction getContractBalance() ...\n      JUMP [out]\t\t\tfunction getContractBalance() ...\n    tag 15\t\t\tuint public contractBalance\n      JUMPDEST \t\t\tuint public contractBalance\n      PUSH 1\t\t\tuint public contractBalance\n      SLOAD \t\t\tuint public contractBalance\n      DUP2 \t\t\tuint public contractBalance\n      JUMP [out]\t\t\tuint public contractBalance\n    tag 17\t\t\tfunction deposit() public paya...\n      JUMPDEST \t\t\tfunction deposit() public paya...\n      PUSH 0\t\t\taccountWithDeposit\n      SLOAD \t\t\taccountWithDeposit\n      PUSH 1\t\t\t\n      PUSH 1\t\t\t\n      PUSH A0\t\t\t\n      SHL \t\t\t\n      SUB \t\t\t\n      AND \t\t\taccountWithDeposit\n      CALLER \t\t\tmsg.sender\n      EQ \t\t\tmsg.sender == accountWithDepos...\n      PUSH [tag] 27\t\t\trequire(msg.sender == accountW...\n      JUMPI \t\t\trequire(msg.sender == accountW...\n      PUSH 40\t\t\trequire(msg.sender == accountW...\n      MLOAD \t\t\trequire(msg.sender == accountW...\n      PUSH 461BCD\t\t\t\n      PUSH E5\t\t\t\n      SHL \t\t\t\n      DUP2 \t\t\trequire(msg.sender == accountW...\n      MSTORE \t\t\trequire(msg.sender == accountW...\n      PUSH 4\t\t\trequire(msg.sender == accountW...\n      ADD \t\t\trequire(msg.sender == accountW...\n      DUP1 \t\t\trequire(msg.sender == accountW...\n      DUP1 \t\t\trequire(msg.sender == accountW...\n      PUSH 20\t\t\trequire(msg.sender == accountW...\n      ADD \t\t\trequire(msg.sender == accountW...\n      DUP3 \t\t\trequire(msg.sender == accountW...\n      DUP2 \t\t\trequire(msg.sender == accountW...\n      SUB \t\t\trequire(msg.sender == accountW...\n      DUP3 \t\t\trequire(msg.sender == accountW...\n      MSTORE \t\t\trequire(msg.sender == accountW...\n      PUSH 2F\t\t\trequire(msg.sender == accountW...\n      DUP2 \t\t\trequire(msg.sender == accountW...\n      MSTORE \t\t\trequire(msg.sender == accountW...\n      PUSH 20\t\t\trequire(msg.sender == accountW...\n      ADD \t\t\trequire(msg.sender == accountW...\n      DUP1 \t\t\trequire(msg.sender == accountW...\n      PUSH data 761AD5378CB58B9D560B2D0A3E49AB99F7E64DB7050F2E431DC988D8F3444EE8\t\t\trequire(msg.sender == accountW...\n      PUSH 2F\t\t\trequire(msg.sender == accountW...\n      SWAP2 \t\t\trequire(msg.sender == accountW...\n      CODECOPY \t\t\trequire(msg.sender == accountW...\n      PUSH 40\t\t\trequire(msg.sender == accountW...\n      ADD \t\t\trequire(msg.sender == accountW...\n      SWAP2 \t\t\trequire(msg.sender == accountW...\n      POP \t\t\trequire(msg.sender == accountW...\n      POP \t\t\trequire(msg.sender == accountW...\n      PUSH 40\t\t\trequire(msg.sender == accountW...\n      MLOAD \t\t\trequire(msg.sender == accountW...\n      DUP1 \t\t\trequire(msg.sender == accountW...\n      SWAP2 \t\t\trequire(msg.sender == accountW...\n      SUB \t\t\trequire(msg.sender == accountW...\n      SWAP1 \t\t\trequire(msg.sender == accountW...\n      REVERT \t\t\trequire(msg.sender == accountW...\n    tag 27\t\t\trequire(msg.sender == accountW...\n      JUMPDEST \t\t\trequire(msg.sender == accountW...\n      PUSH 0\t\t\t0\n      CALLVALUE \t\t\tmsg.value\n      GT \t\t\tmsg.value > 0\n      PUSH [tag] 28\t\t\trequire(msg.value > 0, \"Deposi...\n      JUMPI \t\t\trequire(msg.value > 0, \"Deposi...\n      PUSH 40\t\t\trequire(msg.value > 0, \"Deposi...\n      MLOAD \t\t\trequire(msg.value > 0, \"Deposi...\n      PUSH 461BCD\t\t\t\n      PUSH E5\t\t\t\n      SHL \t\t\t\n      DUP2 \t\t\trequire(msg.value > 0, \"Deposi...\n      MSTORE \t\t\trequire(msg.value > 0, \"Deposi...\n      PUSH 4\t\t\trequire(msg.value > 0, \"Deposi...\n      ADD \t\t\trequire(msg.value > 0, \"Deposi...\n      DUP1 \t\t\trequire(msg.value > 0, \"Deposi...\n      DUP1 \t\t\trequire(msg.value > 0, \"Deposi...\n      PUSH 20\t\t\trequire(msg.value > 0, \"Deposi...\n      ADD \t\t\trequire(msg.value > 0, \"Deposi...\n      DUP3 \t\t\trequire(msg.value > 0, \"Deposi...\n      DUP2 \t\t\trequire(msg.value > 0, \"Deposi...\n      SUB \t\t\trequire(msg.value > 0, \"Deposi...\n      DUP3 \t\t\trequire(msg.value > 0, \"Deposi...\n      MSTORE \t\t\trequire(msg.value > 0, \"Deposi...\n      PUSH 25\t\t\trequire(msg.value > 0, \"Deposi...\n      DUP2 \t\t\trequire(msg.value > 0, \"Deposi...\n      MSTORE \t\t\trequire(msg.value > 0, \"Deposi...\n      PUSH 20\t\t\trequire(msg.value > 0, \"Deposi...\n      ADD \t\t\trequire(msg.value > 0, \"Deposi...\n      DUP1 \t\t\trequire(msg.value > 0, \"Deposi...\n      PUSH data 1CF5370F25734823C5FEAC6853B836D05520862485F150310F24689E28C1F9E6\t\t\trequire(msg.value > 0, \"Deposi...\n      PUSH 25\t\t\trequire(msg.value > 0, \"Deposi...\n      SWAP2 \t\t\trequire(msg.value > 0, \"Deposi...\n      CODECOPY \t\t\trequire(msg.value > 0, \"Deposi...\n      PUSH 40\t\t\trequire(msg.value > 0, \"Deposi...\n      ADD \t\t\trequire(msg.value > 0, \"Deposi...\n      SWAP2 \t\t\trequire(msg.value > 0, \"Deposi...\n      POP \t\t\trequire(msg.value > 0, \"Deposi...\n      POP \t\t\trequire(msg.value > 0, \"Deposi...\n      PUSH 40\t\t\trequire(msg.value > 0, \"Deposi...\n      MLOAD \t\t\trequire(msg.value > 0, \"Deposi...\n      DUP1 \t\t\trequire(msg.value > 0, \"Deposi...\n      SWAP2 \t\t\trequire(msg.value > 0, \"Deposi...\n      SUB \t\t\trequire(msg.value > 0, \"Deposi...\n      SWAP1 \t\t\trequire(msg.value > 0, \"Deposi...\n      REVERT \t\t\trequire(msg.value > 0, \"Deposi...\n    tag 28\t\t\trequire(msg.value > 0, \"Deposi...\n      JUMPDEST \t\t\trequire(msg.value > 0, \"Deposi...\n      PUSH 1\t\t\tcontractBalance\n      DUP1 \t\t\tcontractBalance += msg.value\n      SLOAD \t\t\tcontractBalance += msg.value\n      CALLVALUE \t\t\tmsg.value\n      ADD \t\t\tcontractBalance += msg.value\n      SWAP1 \t\t\tcontractBalance += msg.value\n      SSTORE \t\t\tcontractBalance += msg.value\n      JUMP [out]\t\t\tfunction deposit() public paya...\n    tag 20\t\t\taddress payable public account...\n      JUMPDEST \t\t\taddress payable public account...\n      PUSH 0\t\t\taddress payable public account...\n      SLOAD \t\t\taddress payable public account...\n      PUSH 1\t\t\t\n      PUSH 1\t\t\t\n      PUSH A0\t\t\t\n      SHL \t\t\t\n      SUB \t\t\t\n      AND \t\t\taddress payable public account...\n      DUP2 \t\t\taddress payable public account...\n      JUMP [out]\t\t\taddress payable public account...\n    .data\n      1CF5370F25734823C5FEAC6853B836D05520862485F150310F24689E28C1F9E6:\n        4465706f73697420616d6f756e74206d7573742062652067726561746572207468616e2030\n      761AD5378CB58B9D560B2D0A3E49AB99F7E64DB7050F2E431DC988D8F3444EE8:\n        4f6e6c7920746865206163636f756e742077697468206465706f7369742063616e206d616b65206465706f73697473\n      DDDD7DD40A87E1748F83F94D3F5C6A72E15A6E0971DBE06B64CAFC288D340D98:\n        4f6e6c7920746865206163636f756e742077697468206465706f7369742063616e207769746864726177\n"
}